{
  "_format": "hh-sol-artifact-1",
  "contractName": "Raffle",
  "sourceName": "contracts/Raffle.sol",
  "abi": [
    {
      "inputs": [
        {
          "internalType": "address",
          "name": "vrfCoordinatorV2",
          "type": "address"
        },
        {
          "internalType": "uint64",
          "name": "subscriptionId",
          "type": "uint64"
        },
        {
          "internalType": "bytes32",
          "name": "gasLane",
          "type": "bytes32"
        },
        {
          "internalType": "uint256",
          "name": "interval",
          "type": "uint256"
        },
        {
          "internalType": "uint256",
          "name": "entranceFee",
          "type": "uint256"
        },
        {
          "internalType": "uint32",
          "name": "callbackGasLimit",
          "type": "uint32"
        }
      ],
      "stateMutability": "nonpayable",
      "type": "constructor"
    },
    {
      "inputs": [
        {
          "internalType": "address",
          "name": "have",
          "type": "address"
        },
        {
          "internalType": "address",
          "name": "want",
          "type": "address"
        }
      ],
      "name": "OnlyCoordinatorCanFulfill",
      "type": "error"
    },
    {
      "inputs": [],
      "name": "Raffle__RaffleNotOpen",
      "type": "error"
    },
    {
      "inputs": [],
      "name": "Raffle__SendMoreToEnterRaffle",
      "type": "error"
    },
    {
      "inputs": [],
      "name": "Raffle__TransferFailed",
      "type": "error"
    },
    {
      "inputs": [
        {
          "internalType": "uint256",
          "name": "currentBalance",
          "type": "uint256"
        },
        {
          "internalType": "uint256",
          "name": "numPlayers",
          "type": "uint256"
        },
        {
          "internalType": "uint256",
          "name": "raffleState",
          "type": "uint256"
        }
      ],
      "name": "Raffle__UpkeepNotNeeded",
      "type": "error"
    },
    {
      "anonymous": false,
      "inputs": [
        {
          "indexed": true,
          "internalType": "address",
          "name": "player",
          "type": "address"
        }
      ],
      "name": "RaffleEnter",
      "type": "event"
    },
    {
      "anonymous": false,
      "inputs": [
        {
          "indexed": true,
          "internalType": "uint256",
          "name": "requestId",
          "type": "uint256"
        }
      ],
      "name": "RequestedRaffleWinner",
      "type": "event"
    },
    {
      "anonymous": false,
      "inputs": [
        {
          "indexed": true,
          "internalType": "address",
          "name": "player",
          "type": "address"
        }
      ],
      "name": "WinnerPicked",
      "type": "event"
    },
    {
      "inputs": [
        {
          "internalType": "bytes",
          "name": "",
          "type": "bytes"
        }
      ],
      "name": "checkUpkeep",
      "outputs": [
        {
          "internalType": "bool",
          "name": "upkeepNeeded",
          "type": "bool"
        },
        {
          "internalType": "bytes",
          "name": "",
          "type": "bytes"
        }
      ],
      "stateMutability": "view",
      "type": "function"
    },
    {
      "inputs": [],
      "name": "enterRaffle",
      "outputs": [],
      "stateMutability": "payable",
      "type": "function"
    },
    {
      "inputs": [],
      "name": "getEntranceFee",
      "outputs": [
        {
          "internalType": "uint256",
          "name": "",
          "type": "uint256"
        }
      ],
      "stateMutability": "view",
      "type": "function"
    },
    {
      "inputs": [],
      "name": "getInterval",
      "outputs": [
        {
          "internalType": "uint256",
          "name": "",
          "type": "uint256"
        }
      ],
      "stateMutability": "view",
      "type": "function"
    },
    {
      "inputs": [],
      "name": "getLastTimeStamp",
      "outputs": [
        {
          "internalType": "uint256",
          "name": "",
          "type": "uint256"
        }
      ],
      "stateMutability": "view",
      "type": "function"
    },
    {
      "inputs": [],
      "name": "getNumWords",
      "outputs": [
        {
          "internalType": "uint256",
          "name": "",
          "type": "uint256"
        }
      ],
      "stateMutability": "pure",
      "type": "function"
    },
    {
      "inputs": [],
      "name": "getNumberOfPlayers",
      "outputs": [
        {
          "internalType": "uint256",
          "name": "",
          "type": "uint256"
        }
      ],
      "stateMutability": "view",
      "type": "function"
    },
    {
      "inputs": [
        {
          "internalType": "uint256",
          "name": "index",
          "type": "uint256"
        }
      ],
      "name": "getPlayer",
      "outputs": [
        {
          "internalType": "address",
          "name": "",
          "type": "address"
        }
      ],
      "stateMutability": "view",
      "type": "function"
    },
    {
      "inputs": [],
      "name": "getRaffleState",
      "outputs": [
        {
          "internalType": "enum Raffle.RaffleState",
          "name": "",
          "type": "uint8"
        }
      ],
      "stateMutability": "view",
      "type": "function"
    },
    {
      "inputs": [],
      "name": "getRecentWinner",
      "outputs": [
        {
          "internalType": "address",
          "name": "",
          "type": "address"
        }
      ],
      "stateMutability": "view",
      "type": "function"
    },
    {
      "inputs": [],
      "name": "getRequestConfirmations",
      "outputs": [
        {
          "internalType": "uint256",
          "name": "",
          "type": "uint256"
        }
      ],
      "stateMutability": "pure",
      "type": "function"
    },
    {
      "inputs": [],
      "name": "getSubId",
      "outputs": [
        {
          "internalType": "uint64",
          "name": "",
          "type": "uint64"
        }
      ],
      "stateMutability": "view",
      "type": "function"
    },
    {
      "inputs": [],
      "name": "getVrfCoordinator",
      "outputs": [
        {
          "internalType": "contract VRFCoordinatorV2Interface",
          "name": "",
          "type": "address"
        }
      ],
      "stateMutability": "view",
      "type": "function"
    },
    {
      "inputs": [
        {
          "internalType": "bytes",
          "name": "",
          "type": "bytes"
        }
      ],
      "name": "performUpkeep",
      "outputs": [],
      "stateMutability": "nonpayable",
      "type": "function"
    },
    {
      "inputs": [
        {
          "internalType": "uint256",
          "name": "requestId",
          "type": "uint256"
        },
        {
          "internalType": "uint256[]",
          "name": "randomWords",
          "type": "uint256[]"
        }
      ],
      "name": "rawFulfillRandomWords",
      "outputs": [],
      "stateMutability": "nonpayable",
      "type": "function"
    }
  ],
  "bytecode": "0x6101606040523480156200001257600080fd5b50604051620019cd380380620019cd8339818101604052810190620000389190620001ad565b858073ffffffffffffffffffffffffffffffffffffffff1660808173ffffffffffffffffffffffffffffffffffffffff1660601b81525050508573ffffffffffffffffffffffffffffffffffffffff1660a08173ffffffffffffffffffffffffffffffffffffffff1660601b815250508360e081815250508261012081815250508467ffffffffffffffff1660c08167ffffffffffffffff1660c01b815250508161014081815250506000600360006101000a81548160ff021916908360018111156200010a5762000109620002b5565b5b0217905550426000819055508063ffffffff166101008163ffffffff1660e01b815250505050505050506200036b565b6000815190506200014b81620002e9565b92915050565b600081519050620001628162000303565b92915050565b60008151905062000179816200031d565b92915050565b600081519050620001908162000337565b92915050565b600081519050620001a78162000351565b92915050565b60008060008060008060c08789031215620001cd57620001cc620002e4565b5b6000620001dd89828a016200013a565b9650506020620001f089828a0162000196565b95505060406200020389828a0162000151565b94505060606200021689828a0162000168565b93505060806200022989828a0162000168565b92505060a06200023c89828a016200017f565b9150509295509295509295565b6000620002568262000267565b9050919050565b6000819050919050565b600073ffffffffffffffffffffffffffffffffffffffff82169050919050565b6000819050919050565b600063ffffffff82169050919050565b600067ffffffffffffffff82169050919050565b7f4e487b7100000000000000000000000000000000000000000000000000000000600052602160045260246000fd5b600080fd5b620002f48162000249565b81146200030057600080fd5b50565b6200030e816200025d565b81146200031a57600080fd5b50565b620003288162000287565b81146200033457600080fd5b50565b620003428162000291565b81146200034e57600080fd5b50565b6200035c81620002a1565b81146200036857600080fd5b50565b60805160601c60a05160601c60c05160c01c60e0516101005160e01c61012051610140516115d8620003f560003960008181610376015261049b015260008181610891015261093a01526000610740015260006106fc01526000818161071d01526109b301526000818161039e01526106c00152600081816103db015261042f01526115d86000f3fe6080604052600436106100e85760003560e01c806353a2c19a1161008a578063c1c244e811610059578063c1c244e8146102b4578063e55ae4e8146102df578063fbc6ba6f1461031c578063fd6673f514610347576100e8565b806353a2c19a146101f55780635f1b0fd8146102205780636e04ff0d1461024b57806391ad27b414610289576100e8565b80631fe543e3116100c65780631fe543e31461016e5780632cfcc539146101975780634585e33b146101a1578063473f1ddc146101ca576100e8565b806309bc33a7146100ed5780630cb4a29d14610118578063115cbaf514610143575b600080fd5b3480156100f957600080fd5b50610102610372565b60405161010f919061118d565b60405180910390f35b34801561012457600080fd5b5061012d61039a565b60405161013a9190611157565b60405180910390f35b34801561014f57600080fd5b506101586103c2565b6040516101659190611172565b60405180910390f35b34801561017a57600080fd5b5061019560048036038101906101909190610f3c565b6103d9565b005b61019f610499565b005b3480156101ad57600080fd5b506101c860048036038101906101c39190610e4c565b610608565b005b3480156101d657600080fd5b506101df610808565b6040516101ec9190611090565b60405180910390f35b34801561020157600080fd5b5061020a610832565b604051610217919061118d565b60405180910390f35b34801561022c57600080fd5b50610235610841565b604051610242919061118d565b60405180910390f35b34801561025757600080fd5b50610272600480360381019061026d9190610e99565b61084e565b6040516102809291906110d4565b60405180910390f35b34801561029557600080fd5b5061029e610936565b6040516102ab919061118d565b60405180910390f35b3480156102c057600080fd5b506102c961095e565b6040516102d6919061118d565b60405180910390f35b3480156102eb57600080fd5b5061030660048036038101906103019190610ee2565b610967565b6040516103139190611090565b60405180910390f35b34801561032857600080fd5b506103316109af565b60405161033e91906111df565b60405180910390f35b34801561035357600080fd5b5061035c6109d7565b604051610369919061118d565b60405180910390f35b60007f0000000000000000000000000000000000000000000000000000000000000000905090565b60007f0000000000000000000000000000000000000000000000000000000000000000905090565b6000600360009054906101000a900460ff16905090565b7f000000000000000000000000000000000000000000000000000000000000000073ffffffffffffffffffffffffffffffffffffffff163373ffffffffffffffffffffffffffffffffffffffff161461048b57337f00000000000000000000000000000000000000000000000000000000000000006040517f1cf993f40000000000000000000000000000000000000000000000000000000081526004016104829291906110ab565b60405180910390fd5b61049582826109e4565b5050565b7f00000000000000000000000000000000000000000000000000000000000000003410156104f3576040517f3038c00a00000000000000000000000000000000000000000000000000000000815260040160405180910390fd5b60006001811115610507576105066114b8565b5b600360009054906101000a900460ff166001811115610529576105286114b8565b5b14610560576040517fd24a271400000000000000000000000000000000000000000000000000000000815260040160405180910390fd5b6002339080600181540180825580915050600190039060005260206000200160009091909190916101000a81548173ffffffffffffffffffffffffffffffffffffffff021916908373ffffffffffffffffffffffffffffffffffffffff1602179055503373ffffffffffffffffffffffffffffffffffffffff167f0805e1d667bddb8a95f0f09880cf94f403fb596ce79928d9f29b74203ba284d460405160405180910390a2565b60006106226040518060200160405280600081525061084e565b509050806106915747600280549050600360009054906101000a900460ff166001811115610653576106526114b8565b5b6040517f584327aa000000000000000000000000000000000000000000000000000000008152600401610688939291906111a8565b60405180910390fd5b6001600360006101000a81548160ff021916908360018111156106b7576106b66114b8565b5b021790555060007f000000000000000000000000000000000000000000000000000000000000000073ffffffffffffffffffffffffffffffffffffffff16635d3b1d307f00000000000000000000000000000000000000000000000000000000000000007f000000000000000000000000000000000000000000000000000000000000000060037f000000000000000000000000000000000000000000000000000000000000000060016040518663ffffffff1660e01b8152600401610781959493929190611104565b602060405180830381600087803b15801561079b57600080fd5b505af11580156107af573d6000803e3d6000fd5b505050506040513d601f19601f820116820180604052508101906107d39190610f0f565b9050807fcd6e45c8998311cab7e9d4385596cac867e20a0587194b954fa3a731c93ce78b60405160405180910390a250505050565b6000600160009054906101000a900473ffffffffffffffffffffffffffffffffffffffff16905090565b6000600163ffffffff16905090565b6000600361ffff16905090565b600060606000600360009054906101000a900460ff166001811115610876576108756114b8565b5b6000600181111561088a576108896114b8565b5b14905060007f0000000000000000000000000000000000000000000000000000000000000000600054426108be91906112a3565b119050600080600280549050119050600080471190508280156108de5750835b80156108e75750805b80156108f05750815b9550856040518060400160405280600381526020017f30783000000000000000000000000000000000000000000000000000000000008152509550955050505050915091565b60007f0000000000000000000000000000000000000000000000000000000000000000905090565b60008054905090565b60006002828154811061097d5761097c6114e7565b5b9060005260206000200160009054906101000a900473ffffffffffffffffffffffffffffffffffffffff169050919050565b60007f0000000000000000000000000000000000000000000000000000000000000000905090565b6000600280549050905090565b600060028054905082600081518110610a00576109ff6114e7565b5b6020026020010151610a129190611429565b9050600060028281548110610a2a57610a296114e7565b5b9060005260206000200160009054906101000a900473ffffffffffffffffffffffffffffffffffffffff16905080600160006101000a81548173ffffffffffffffffffffffffffffffffffffffff021916908373ffffffffffffffffffffffffffffffffffffffff160217905550600067ffffffffffffffff811115610ab357610ab2611516565b5b604051908082528060200260200182016040528015610ae15781602001602082028036833780820191505090505b5060029080519060200190610af7929190610c17565b506000600360006101000a81548160ff02191690836001811115610b1e57610b1d6114b8565b5b02179055504260008190555060008173ffffffffffffffffffffffffffffffffffffffff1647604051610b509061107b565b60006040518083038185875af1925050503d8060008114610b8d576040519150601f19603f3d011682016040523d82523d6000602084013e610b92565b606091505b5050905080610bcd576040517fa1d04b3900000000000000000000000000000000000000000000000000000000815260040160405180910390fd5b8173ffffffffffffffffffffffffffffffffffffffff167f5b690ec4a06fe979403046eaeea5b3ce38524683c3001f662c8b5a829632f7df60405160405180910390a25050505050565b828054828255906000526020600020908101928215610c90579160200282015b82811115610c8f5782518260006101000a81548173ffffffffffffffffffffffffffffffffffffffff021916908373ffffffffffffffffffffffffffffffffffffffff16021790555091602001919060010190610c37565b5b509050610c9d9190610ca1565b5090565b5b80821115610cba576000816000905550600101610ca2565b5090565b6000610cd1610ccc8461121f565b6111fa565b90508083825260208201905082856020860282011115610cf457610cf361154f565b5b60005b85811015610d245781610d0a8882610e22565b845260208401935060208301925050600181019050610cf7565b5050509392505050565b6000610d41610d3c8461124b565b6111fa565b905082815260208101848484011115610d5d57610d5c611554565b5b610d688482856113b6565b509392505050565b600082601f830112610d8557610d8461154a565b5b8135610d95848260208601610cbe565b91505092915050565b60008083601f840112610db457610db361154a565b5b8235905067ffffffffffffffff811115610dd157610dd0611545565b5b602083019150836001820283011115610ded57610dec61154f565b5b9250929050565b600082601f830112610e0957610e0861154a565b5b8135610e19848260208601610d2e565b91505092915050565b600081359050610e318161158b565b92915050565b600081519050610e468161158b565b92915050565b60008060208385031215610e6357610e6261155e565b5b600083013567ffffffffffffffff811115610e8157610e80611559565b5b610e8d85828601610d9e565b92509250509250929050565b600060208284031215610eaf57610eae61155e565b5b600082013567ffffffffffffffff811115610ecd57610ecc611559565b5b610ed984828501610df4565b91505092915050565b600060208284031215610ef857610ef761155e565b5b6000610f0684828501610e22565b91505092915050565b600060208284031215610f2557610f2461155e565b5b6000610f3384828501610e37565b91505092915050565b60008060408385031215610f5357610f5261155e565b5b6000610f6185828601610e22565b925050602083013567ffffffffffffffff811115610f8257610f81611559565b5b610f8e85828601610d70565b9150509250929050565b610fa1816112d7565b82525050565b610fb0816112e9565b82525050565b610fbf816112f5565b82525050565b6000610fd08261127c565b610fda8185611287565b9350610fea8185602086016113c5565b610ff381611563565b840191505092915050565b6110078161136e565b82525050565b61101681611380565b82525050565b6000611029600083611298565b915061103482611574565b600082019050919050565b61104881611312565b82525050565b61105781611340565b82525050565b6110668161134a565b82525050565b6110758161135a565b82525050565b60006110868261101c565b9150819050919050565b60006020820190506110a56000830184610f98565b92915050565b60006040820190506110c06000830185610f98565b6110cd6020830184610f98565b9392505050565b60006040820190506110e96000830185610fa7565b81810360208301526110fb8184610fc5565b90509392505050565b600060a0820190506111196000830188610fb6565b611126602083018761106c565b611133604083018661103f565b611140606083018561105d565b61114d608083018461105d565b9695505050505050565b600060208201905061116c6000830184610ffe565b92915050565b6000602082019050611187600083018461100d565b92915050565b60006020820190506111a2600083018461104e565b92915050565b60006060820190506111bd600083018661104e565b6111ca602083018561104e565b6111d7604083018461104e565b949350505050565b60006020820190506111f4600083018461106c565b92915050565b6000611204611215565b905061121082826113f8565b919050565b6000604051905090565b600067ffffffffffffffff82111561123a57611239611516565b5b602082029050602081019050919050565b600067ffffffffffffffff82111561126657611265611516565b5b61126f82611563565b9050602081019050919050565b600081519050919050565b600082825260208201905092915050565b600081905092915050565b60006112ae82611340565b91506112b983611340565b9250828210156112cc576112cb61145a565b5b828203905092915050565b60006112e282611320565b9050919050565b60008115159050919050565b6000819050919050565b600081905061130d82611577565b919050565b600061ffff82169050919050565b600073ffffffffffffffffffffffffffffffffffffffff82169050919050565b6000819050919050565b600063ffffffff82169050919050565b600067ffffffffffffffff82169050919050565b600061137982611392565b9050919050565b600061138b826112ff565b9050919050565b600061139d826113a4565b9050919050565b60006113af82611320565b9050919050565b82818337600083830152505050565b60005b838110156113e35780820151818401526020810190506113c8565b838111156113f2576000848401525b50505050565b61140182611563565b810181811067ffffffffffffffff821117156114205761141f611516565b5b80604052505050565b600061143482611340565b915061143f83611340565b92508261144f5761144e611489565b5b828206905092915050565b7f4e487b7100000000000000000000000000000000000000000000000000000000600052601160045260246000fd5b7f4e487b7100000000000000000000000000000000000000000000000000000000600052601260045260246000fd5b7f4e487b7100000000000000000000000000000000000000000000000000000000600052602160045260246000fd5b7f4e487b7100000000000000000000000000000000000000000000000000000000600052603260045260246000fd5b7f4e487b7100000000000000000000000000000000000000000000000000000000600052604160045260246000fd5b600080fd5b600080fd5b600080fd5b600080fd5b600080fd5b600080fd5b6000601f19601f8301169050919050565b50565b60028110611588576115876114b8565b5b50565b61159481611340565b811461159f57600080fd5b5056fea2646970667358221220c647cddbd1353e28f326035beeb8390128878852f0779132c54d4d334ef121d464736f6c63430008070033",
  "linkReferences": {},
  "deployedLinkReferences": {}
}